{
  "contractName": "OysterPearl",
  "abi": [
    {
      "constant": true,
      "inputs": [],
      "name": "name",
      "outputs": [
        {
          "name": "",
          "type": "string"
        }
      ],
      "payable": false,
      "stateMutability": "view",
      "type": "function"
    },
    {
      "constant": true,
      "inputs": [],
      "name": "totalSupply",
      "outputs": [
        {
          "name": "",
          "type": "uint256"
        }
      ],
      "payable": false,
      "stateMutability": "view",
      "type": "function"
    },
    {
      "constant": true,
      "inputs": [],
      "name": "retentionMax",
      "outputs": [
        {
          "name": "",
          "type": "uint256"
        }
      ],
      "payable": false,
      "stateMutability": "view",
      "type": "function"
    },
    {
      "constant": true,
      "inputs": [
        {
          "name": "",
          "type": "address"
        }
      ],
      "name": "balances",
      "outputs": [
        {
          "name": "",
          "type": "uint256"
        }
      ],
      "payable": false,
      "stateMutability": "view",
      "type": "function"
    },
    {
      "constant": true,
      "inputs": [],
      "name": "decimals",
      "outputs": [
        {
          "name": "",
          "type": "uint8"
        }
      ],
      "payable": false,
      "stateMutability": "view",
      "type": "function"
    },
    {
      "constant": true,
      "inputs": [
        {
          "name": "",
          "type": "address"
        }
      ],
      "name": "buried",
      "outputs": [
        {
          "name": "",
          "type": "bool"
        }
      ],
      "payable": false,
      "stateMutability": "view",
      "type": "function"
    },
    {
      "constant": true,
      "inputs": [],
      "name": "director",
      "outputs": [
        {
          "name": "",
          "type": "address"
        }
      ],
      "payable": false,
      "stateMutability": "view",
      "type": "function"
    },
    {
      "constant": true,
      "inputs": [],
      "name": "feeAmount",
      "outputs": [
        {
          "name": "",
          "type": "uint256"
        }
      ],
      "payable": false,
      "stateMutability": "view",
      "type": "function"
    },
    {
      "constant": true,
      "inputs": [],
      "name": "claimAmount",
      "outputs": [
        {
          "name": "",
          "type": "uint256"
        }
      ],
      "payable": false,
      "stateMutability": "view",
      "type": "function"
    },
    {
      "constant": true,
      "inputs": [],
      "name": "epoch",
      "outputs": [
        {
          "name": "",
          "type": "uint256"
        }
      ],
      "payable": false,
      "stateMutability": "view",
      "type": "function"
    },
    {
      "constant": true,
      "inputs": [],
      "name": "symbol",
      "outputs": [
        {
          "name": "",
          "type": "string"
        }
      ],
      "payable": false,
      "stateMutability": "view",
      "type": "function"
    },
    {
      "constant": true,
      "inputs": [],
      "name": "saleClosed",
      "outputs": [
        {
          "name": "",
          "type": "bool"
        }
      ],
      "payable": false,
      "stateMutability": "view",
      "type": "function"
    },
    {
      "constant": true,
      "inputs": [],
      "name": "payAmount",
      "outputs": [
        {
          "name": "",
          "type": "uint256"
        }
      ],
      "payable": false,
      "stateMutability": "view",
      "type": "function"
    },
    {
      "constant": true,
      "inputs": [
        {
          "name": "",
          "type": "address"
        }
      ],
      "name": "claimed",
      "outputs": [
        {
          "name": "",
          "type": "uint256"
        }
      ],
      "payable": false,
      "stateMutability": "view",
      "type": "function"
    },
    {
      "constant": true,
      "inputs": [],
      "name": "funds",
      "outputs": [
        {
          "name": "",
          "type": "uint256"
        }
      ],
      "payable": false,
      "stateMutability": "view",
      "type": "function"
    },
    {
      "constant": true,
      "inputs": [
        {
          "name": "",
          "type": "address"
        },
        {
          "name": "",
          "type": "address"
        }
      ],
      "name": "allowance",
      "outputs": [
        {
          "name": "",
          "type": "uint256"
        }
      ],
      "payable": false,
      "stateMutability": "view",
      "type": "function"
    },
    {
      "constant": true,
      "inputs": [],
      "name": "directorLock",
      "outputs": [
        {
          "name": "",
          "type": "bool"
        }
      ],
      "payable": false,
      "stateMutability": "view",
      "type": "function"
    },
    {
      "inputs": [],
      "payable": false,
      "stateMutability": "nonpayable",
      "type": "constructor"
    },
    {
      "payable": true,
      "stateMutability": "payable",
      "type": "fallback"
    },
    {
      "anonymous": false,
      "inputs": [
        {
          "indexed": true,
          "name": "_from",
          "type": "address"
        },
        {
          "indexed": true,
          "name": "_to",
          "type": "address"
        },
        {
          "indexed": false,
          "name": "_value",
          "type": "uint256"
        }
      ],
      "name": "Transfer",
      "type": "event"
    },
    {
      "anonymous": false,
      "inputs": [
        {
          "indexed": true,
          "name": "_owner",
          "type": "address"
        },
        {
          "indexed": true,
          "name": "_spender",
          "type": "address"
        },
        {
          "indexed": false,
          "name": "_value",
          "type": "uint256"
        }
      ],
      "name": "Approval",
      "type": "event"
    },
    {
      "anonymous": false,
      "inputs": [
        {
          "indexed": true,
          "name": "_from",
          "type": "address"
        },
        {
          "indexed": false,
          "name": "_value",
          "type": "uint256"
        }
      ],
      "name": "Burn",
      "type": "event"
    },
    {
      "anonymous": false,
      "inputs": [
        {
          "indexed": true,
          "name": "_target",
          "type": "address"
        },
        {
          "indexed": false,
          "name": "_value",
          "type": "uint256"
        }
      ],
      "name": "Bury",
      "type": "event"
    },
    {
      "anonymous": false,
      "inputs": [
        {
          "indexed": true,
          "name": "_target",
          "type": "address"
        },
        {
          "indexed": true,
          "name": "_payout",
          "type": "address"
        },
        {
          "indexed": true,
          "name": "_fee",
          "type": "address"
        }
      ],
      "name": "Claim",
      "type": "event"
    },
    {
      "constant": true,
      "inputs": [
        {
          "name": "_owner",
          "type": "address"
        }
      ],
      "name": "balanceOf",
      "outputs": [
        {
          "name": "balance",
          "type": "uint256"
        }
      ],
      "payable": false,
      "stateMutability": "view",
      "type": "function"
    },
    {
      "constant": false,
      "inputs": [
        {
          "name": "newDirector",
          "type": "address"
        }
      ],
      "name": "transferDirector",
      "outputs": [],
      "payable": false,
      "stateMutability": "nonpayable",
      "type": "function"
    },
    {
      "constant": false,
      "inputs": [],
      "name": "withdrawFunds",
      "outputs": [],
      "payable": false,
      "stateMutability": "nonpayable",
      "type": "function"
    },
    {
      "constant": false,
      "inputs": [],
      "name": "selfLock",
      "outputs": [],
      "payable": true,
      "stateMutability": "payable",
      "type": "function"
    },
    {
      "constant": false,
      "inputs": [
        {
          "name": "claimAmountSet",
          "type": "uint8"
        },
        {
          "name": "payAmountSet",
          "type": "uint8"
        },
        {
          "name": "feeAmountSet",
          "type": "uint8"
        },
        {
          "name": "accuracy",
          "type": "uint8"
        }
      ],
      "name": "amendClaim",
      "outputs": [
        {
          "name": "success",
          "type": "bool"
        }
      ],
      "payable": false,
      "stateMutability": "nonpayable",
      "type": "function"
    },
    {
      "constant": false,
      "inputs": [
        {
          "name": "epochSet",
          "type": "uint256"
        }
      ],
      "name": "amendEpoch",
      "outputs": [
        {
          "name": "success",
          "type": "bool"
        }
      ],
      "payable": false,
      "stateMutability": "nonpayable",
      "type": "function"
    },
    {
      "constant": false,
      "inputs": [
        {
          "name": "retentionSet",
          "type": "uint8"
        },
        {
          "name": "accuracy",
          "type": "uint8"
        }
      ],
      "name": "amendRetention",
      "outputs": [
        {
          "name": "success",
          "type": "bool"
        }
      ],
      "payable": false,
      "stateMutability": "nonpayable",
      "type": "function"
    },
    {
      "constant": false,
      "inputs": [],
      "name": "closeSale",
      "outputs": [
        {
          "name": "success",
          "type": "bool"
        }
      ],
      "payable": false,
      "stateMutability": "nonpayable",
      "type": "function"
    },
    {
      "constant": false,
      "inputs": [],
      "name": "openSale",
      "outputs": [
        {
          "name": "success",
          "type": "bool"
        }
      ],
      "payable": false,
      "stateMutability": "nonpayable",
      "type": "function"
    },
    {
      "constant": false,
      "inputs": [],
      "name": "bury",
      "outputs": [
        {
          "name": "success",
          "type": "bool"
        }
      ],
      "payable": false,
      "stateMutability": "nonpayable",
      "type": "function"
    },
    {
      "constant": false,
      "inputs": [
        {
          "name": "_payout",
          "type": "address"
        },
        {
          "name": "_fee",
          "type": "address"
        }
      ],
      "name": "claim",
      "outputs": [
        {
          "name": "success",
          "type": "bool"
        }
      ],
      "payable": false,
      "stateMutability": "nonpayable",
      "type": "function"
    },
    {
      "constant": false,
      "inputs": [
        {
          "name": "_to",
          "type": "address"
        },
        {
          "name": "_value",
          "type": "uint256"
        }
      ],
      "name": "transfer",
      "outputs": [],
      "payable": false,
      "stateMutability": "nonpayable",
      "type": "function"
    },
    {
      "constant": false,
      "inputs": [
        {
          "name": "_from",
          "type": "address"
        },
        {
          "name": "_to",
          "type": "address"
        },
        {
          "name": "_value",
          "type": "uint256"
        }
      ],
      "name": "transferFrom",
      "outputs": [
        {
          "name": "success",
          "type": "bool"
        }
      ],
      "payable": false,
      "stateMutability": "nonpayable",
      "type": "function"
    },
    {
      "constant": false,
      "inputs": [
        {
          "name": "_spender",
          "type": "address"
        },
        {
          "name": "_value",
          "type": "uint256"
        }
      ],
      "name": "approve",
      "outputs": [
        {
          "name": "success",
          "type": "bool"
        }
      ],
      "payable": false,
      "stateMutability": "nonpayable",
      "type": "function"
    },
    {
      "constant": false,
      "inputs": [
        {
          "name": "_spender",
          "type": "address"
        },
        {
          "name": "_value",
          "type": "uint256"
        },
        {
          "name": "_extraData",
          "type": "bytes"
        }
      ],
      "name": "approveAndCall",
      "outputs": [
        {
          "name": "success",
          "type": "bool"
        }
      ],
      "payable": false,
      "stateMutability": "nonpayable",
      "type": "function"
    },
    {
      "constant": false,
      "inputs": [
        {
          "name": "_value",
          "type": "uint256"
        }
      ],
      "name": "burn",
      "outputs": [
        {
          "name": "success",
          "type": "bool"
        }
      ],
      "payable": false,
      "stateMutability": "nonpayable",
      "type": "function"
    },
    {
      "constant": false,
      "inputs": [
        {
          "name": "_from",
          "type": "address"
        },
        {
          "name": "_value",
          "type": "uint256"
        }
      ],
      "name": "burnFrom",
      "outputs": [
        {
          "name": "success",
          "type": "bool"
        }
      ],
      "payable": false,
      "stateMutability": "nonpayable",
      "type": "function"
    }
  ],
  "bytecode": "0x60806040523480156200001157600080fd5b5033600560006101000a81548173ffffffffffffffffffffffffffffffffffffffff021916908373ffffffffffffffffffffffffffffffffffffffff1602179055506040805190810160405280600c81526020017f4f797374657220506561726c000000000000000000000000000000000000000081525060009080519060200190620000a0929190620002cf565b506040805190810160405280600381526020017f50524c000000000000000000000000000000000000000000000000000000000081525060019080519060200190620000ee929190620002cf565b506012600260006101000a81548160ff021916908360ff1602179055506001600560146101000a81548160ff0219169083151502179055506000600560156101000a81548160ff02191690831515021790555060006004819055506000600381905550600260009054906101000a900460ff1660ff16600a0a63017d784002600360008282540192505081905550600260009054906101000a900460ff1660ff16600a0a63047868c002600360008282540192505081905550600260009054906101000a900460ff1660ff16600a0a627a120002600360008282540192505081905550600354600b6000600560009054906101000a900473ffffffffffffffffffffffffffffffffffffffff1673ffffffffffffffffffffffffffffffffffffffff1673ffffffffffffffffffffffffffffffffffffffff168152602001908152602001600020819055506001600260009054906101000a900460ff1660ff1603600a0a6005026006819055506001600260009054906101000a900460ff1660ff1603600a0a6004026007819055506001600260009054906101000a900460ff1660ff1603600a0a6001026008819055506301e13380600981905550600260009054906101000a900460ff1660ff16600a0a602802600a819055506200037e565b828054600181600116156101000203166002900490600052602060002090601f016020900481019282601f106200031257805160ff191683800117855562000343565b8280016001018555821562000343579182015b828111156200034257825182559160200191906001019062000325565b5b50905062000352919062000356565b5090565b6200037b91905b80821115620003775760008160009055506001016200035d565b5090565b90565b6129b7806200038e6000396000f3006080604052600436106101ac576000357c0100000000000000000000000000000000000000000000000000000000900463ffffffff16806306fdde03146102ea578063095ea7b31461037a578063167ff46f146103df57806318160ddd1461040e57806321c0b3421461043957806322bb4f53146104b457806323b872dd146104df57806324600fc31461056457806327e235e31461057b578063313ce567146105d25780633f1199e61461060357806342966c681461065e578063549215a3146106a35780635af82abf146106e85780635f5f2aef1461073f57806361161aae1461079457806369e15404146107c357806370a08231146107ee57806379cc6790146108455780637dbc9fba146108aa578063830953ab14610919578063900cf0cf1461094457806395d89b411461096f578063a9059cbb146109ff578063b8c766b814610a4c578063c870554414610a7b578063c884ef8314610aa6578063c89f2ce414610afd578063cae9ca5114610b28578063d1e7e81f14610bd3578063dd62ed3e14610bdd578063ddd41ef614610c54578063ee55efee14610c97578063ffe2d77e14610cc6575b6000600560149054906101000a900460ff161515156101ca57600080fd5b66038d7ea4c6800034101515156101e057600080fd5b61138834029050600260009054906101000a900460ff1660ff16600a0a631dcd65000281600354011115151561021557600080fd5b8060036000828254019250508190555080600b60003373ffffffffffffffffffffffffffffffffffffffff1673ffffffffffffffffffffffffffffffffffffffff16815260200190815260200160002060008282540192505081905550346004600082825401925050819055503373ffffffffffffffffffffffffffffffffffffffff163073ffffffffffffffffffffffffffffffffffffffff167fddf252ad1be2c89b69c2b068fc378daa952ba7f163c4a11628f55a4df523b3ef836040518082815260200191505060405180910390a350005b3480156102f657600080fd5b506102ff610cf5565b6040518080602001828103825283818151815260200191508051906020019080838360005b8381101561033f578082015181840152602081019050610324565b50505050905090810190601f16801561036c5780820380516001836020036101000a031916815260200191505b509250505060405180910390f35b34801561038657600080fd5b506103c5600480360381019080803573ffffffffffffffffffffffffffffffffffffffff16906020019092919080359060200190929190505050610d93565b604051808215151515815260200191505060405180910390f35b3480156103eb57600080fd5b506103f4610ede565b604051808215151515815260200191505060405180910390f35b34801561041a57600080fd5b50610423610f95565b6040518082815260200191505060405180910390f35b34801561044557600080fd5b5061049a600480360381019080803573ffffffffffffffffffffffffffffffffffffffff169060200190929190803573ffffffffffffffffffffffffffffffffffffffff169060200190929190505050610f9b565b604051808215151515815260200191505060405180910390f35b3480156104c057600080fd5b506104c961159e565b6040518082815260200191505060405180910390f35b3480156104eb57600080fd5b5061054a600480360381019080803573ffffffffffffffffffffffffffffffffffffffff169060200190929190803573ffffffffffffffffffffffffffffffffffffffff169060200190929190803590602001909291905050506115a4565b604051808215151515815260200191505060405180910390f35b34801561057057600080fd5b506105796116d1565b005b34801561058757600080fd5b506105bc600480360381019080803573ffffffffffffffffffffffffffffffffffffffff1690602001909291905050506117af565b6040518082815260200191505060405180910390f35b3480156105de57600080fd5b506105e76117c7565b604051808260ff1660ff16815260200191505060405180910390f35b34801561060f57600080fd5b50610644600480360381019080803573ffffffffffffffffffffffffffffffffffffffff1690602001909291905050506117da565b604051808215151515815260200191505060405180910390f35b34801561066a57600080fd5b50610689600480360381019080803590602001909291905050506117fa565b604051808215151515815260200191505060405180910390f35b3480156106af57600080fd5b506106ce60048036038101908080359060200190929190505050611957565b604051808215151515815260200191505060405180910390f35b3480156106f457600080fd5b506106fd6119e1565b604051808273ffffffffffffffffffffffffffffffffffffffff1673ffffffffffffffffffffffffffffffffffffffff16815260200191505060405180910390f35b34801561074b57600080fd5b5061077a600480360381019080803560ff169060200190929190803560ff169060200190929190505050611a07565b604051808215151515815260200191505060405180910390f35b3480156107a057600080fd5b506107a9611ab1565b604051808215151515815260200191505060405180910390f35b3480156107cf57600080fd5b506107d8611cdd565b6040518082815260200191505060405180910390f35b3480156107fa57600080fd5b5061082f600480360381019080803573ffffffffffffffffffffffffffffffffffffffff169060200190929190505050611ce3565b6040518082815260200191505060405180910390f35b34801561085157600080fd5b50610890600480360381019080803573ffffffffffffffffffffffffffffffffffffffff16906020019092919080359060200190929190505050611d2c565b604051808215151515815260200191505060405180910390f35b3480156108b657600080fd5b506108ff600480360381019080803560ff169060200190929190803560ff169060200190929190803560ff169060200190929190803560ff169060200190929190505050611f9f565b604051808215151515815260200191505060405180910390f35b34801561092557600080fd5b5061092e6120ad565b6040518082815260200191505060405180910390f35b34801561095057600080fd5b506109596120b3565b6040518082815260200191505060405180910390f35b34801561097b57600080fd5b506109846120b9565b6040518080602001828103825283818151815260200191508051906020019080838360005b838110156109c45780820151818401526020810190506109a9565b50505050905090810190601f1680156109f15780820380516001836020036101000a031916815260200191505b509250505060405180910390f35b348015610a0b57600080fd5b50610a4a600480360381019080803573ffffffffffffffffffffffffffffffffffffffff16906020019092919080359060200190929190505050612157565b005b348015610a5857600080fd5b50610a61612166565b604051808215151515815260200191505060405180910390f35b348015610a8757600080fd5b50610a90612179565b6040518082815260200191505060405180910390f35b348015610ab257600080fd5b50610ae7600480360381019080803573ffffffffffffffffffffffffffffffffffffffff16906020019092919050505061217f565b6040518082815260200191505060405180910390f35b348015610b0957600080fd5b50610b12612197565b6040518082815260200191505060405180910390f35b348015610b3457600080fd5b50610bb9600480360381019080803573ffffffffffffffffffffffffffffffffffffffff16906020019092919080359060200190929190803590602001908201803590602001908080601f016020809104026020016040519081016040528093929190818152602001838380828437820191505050505050919291929050505061219d565b604051808215151515815260200191505060405180910390f35b610bdb612320565b005b348015610be957600080fd5b50610c3e600480360381019080803573ffffffffffffffffffffffffffffffffffffffff169060200190929190803573ffffffffffffffffffffffffffffffffffffffff1690602001909291905050506123e6565b6040518082815260200191505060405180910390f35b348015610c6057600080fd5b50610c95600480360381019080803573ffffffffffffffffffffffffffffffffffffffff16906020019092919050505061240b565b005b348015610ca357600080fd5b50610cac6124ab565b604051808215151515815260200191505060405180910390f35b348015610cd257600080fd5b50610cdb612563565b604051808215151515815260200191505060405180910390f35b60008054600181600116156101000203166002900480601f016020809104026020016040519081016040528092919081815260200182805460018160011615610100020316600290048015610d8b5780601f10610d6057610100808354040283529160200191610d8b565b820191906000526020600020905b815481529060010190602001808311610d6e57829003601f168201915b505050505081565b6000600d60003373ffffffffffffffffffffffffffffffffffffffff1673ffffffffffffffffffffffffffffffffffffffff16815260200190815260200160002060009054906101000a900460ff16151515610dee57600080fd5b81600c60003373ffffffffffffffffffffffffffffffffffffffff1673ffffffffffffffffffffffffffffffffffffffff16815260200190815260200160002060008573ffffffffffffffffffffffffffffffffffffffff1673ffffffffffffffffffffffffffffffffffffffff168152602001908152602001600020819055508273ffffffffffffffffffffffffffffffffffffffff163373ffffffffffffffffffffffffffffffffffffffff167f8c5be1e5ebec7d5bd14f71427d1e84f3dd0314c0f7b2291e5b200ac8c7c3b925846040518082815260200191505060405180910390a36001905092915050565b6000600560159054906101000a900460ff16151515610efc57600080fd5b600560009054906101000a900473ffffffffffffffffffffffffffffffffffffffff1673ffffffffffffffffffffffffffffffffffffffff163373ffffffffffffffffffffffffffffffffffffffff16141515610f5857600080fd5b600560149054906101000a900460ff161515610f7357600080fd5b6000600560146101000a81548160ff0219169083151502179055506001905090565b60035481565b600080600d60003373ffffffffffffffffffffffffffffffffffffffff1673ffffffffffffffffffffffffffffffffffffffff16815260200190815260200160002060009054906101000a900460ff161515610ff657600080fd5b8273ffffffffffffffffffffffffffffffffffffffff168473ffffffffffffffffffffffffffffffffffffffff161415151561103157600080fd5b8373ffffffffffffffffffffffffffffffffffffffff163373ffffffffffffffffffffffffffffffffffffffff161415151561106c57600080fd5b8273ffffffffffffffffffffffffffffffffffffffff163373ffffffffffffffffffffffffffffffffffffffff16141515156110a757600080fd5b6001600e60003373ffffffffffffffffffffffffffffffffffffffff1673ffffffffffffffffffffffffffffffffffffffff1681526020019081526020016000205414806111385750600954600e60003373ffffffffffffffffffffffffffffffffffffffff1673ffffffffffffffffffffffffffffffffffffffff16815260200190815260200160002054420310155b151561114357600080fd5b600654600b60003373ffffffffffffffffffffffffffffffffffffffff1673ffffffffffffffffffffffffffffffffffffffff168152602001908152602001600020541015151561119357600080fd5b42600e60003373ffffffffffffffffffffffffffffffffffffffff1673ffffffffffffffffffffffffffffffffffffffff16815260200190815260200160002081905550600b60008473ffffffffffffffffffffffffffffffffffffffff1673ffffffffffffffffffffffffffffffffffffffff16815260200190815260200160002054600b60008673ffffffffffffffffffffffffffffffffffffffff1673ffffffffffffffffffffffffffffffffffffffff16815260200190815260200160002054600b60003373ffffffffffffffffffffffffffffffffffffffff1673ffffffffffffffffffffffffffffffffffffffff1681526020019081526020016000205401019050600654600b60003373ffffffffffffffffffffffffffffffffffffffff1673ffffffffffffffffffffffffffffffffffffffff16815260200190815260200160002060008282540392505081905550600754600b60008673ffffffffffffffffffffffffffffffffffffffff1673ffffffffffffffffffffffffffffffffffffffff16815260200190815260200160002060008282540192505081905550600854600b60008573ffffffffffffffffffffffffffffffffffffffff1673ffffffffffffffffffffffffffffffffffffffff168152602001908152602001600020600082825401925050819055508273ffffffffffffffffffffffffffffffffffffffff168473ffffffffffffffffffffffffffffffffffffffff163373ffffffffffffffffffffffffffffffffffffffff167fcac3ed26c9dd72a2c44999857298af9c72ba2d1ca9784f5dad48c933e2224c1160405160405180910390a48373ffffffffffffffffffffffffffffffffffffffff163373ffffffffffffffffffffffffffffffffffffffff167fddf252ad1be2c89b69c2b068fc378daa952ba7f163c4a11628f55a4df523b3ef6007546040518082815260200191505060405180910390a38273ffffffffffffffffffffffffffffffffffffffff163373ffffffffffffffffffffffffffffffffffffffff167fddf252ad1be2c89b69c2b068fc378daa952ba7f163c4a11628f55a4df523b3ef6008546040518082815260200191505060405180910390a380600b60008573ffffffffffffffffffffffffffffffffffffffff1673ffffffffffffffffffffffffffffffffffffffff16815260200190815260200160002054600b60008773ffffffffffffffffffffffffffffffffffffffff1673ffffffffffffffffffffffffffffffffffffffff16815260200190815260200160002054600b60003373ffffffffffffffffffffffffffffffffffffffff1673ffffffffffffffffffffffffffffffffffffffff16815260200190815260200160002054010114151561159357fe5b600191505092915050565b600a5481565b6000600c60008573ffffffffffffffffffffffffffffffffffffffff1673ffffffffffffffffffffffffffffffffffffffff16815260200190815260200160002060003373ffffffffffffffffffffffffffffffffffffffff1673ffffffffffffffffffffffffffffffffffffffff16815260200190815260200160002054821115151561163157600080fd5b81600c60008673ffffffffffffffffffffffffffffffffffffffff1673ffffffffffffffffffffffffffffffffffffffff16815260200190815260200160002060003373ffffffffffffffffffffffffffffffffffffffff1673ffffffffffffffffffffffffffffffffffffffff168152602001908152602001600020600082825403925050819055506116c6848484612576565b600190509392505050565b600560009054906101000a900473ffffffffffffffffffffffffffffffffffffffff1673ffffffffffffffffffffffffffffffffffffffff163373ffffffffffffffffffffffffffffffffffffffff1614151561172d57600080fd5b600560009054906101000a900473ffffffffffffffffffffffffffffffffffffffff1673ffffffffffffffffffffffffffffffffffffffff166108fc3073ffffffffffffffffffffffffffffffffffffffff16319081150290604051600060405180830381858888f193505050501580156117ac573d6000803e3d6000fd5b50565b600b6020528060005260406000206000915090505481565b600260009054906101000a900460ff1681565b600d6020528060005260406000206000915054906101000a900460ff1681565b6000600d60003373ffffffffffffffffffffffffffffffffffffffff1673ffffffffffffffffffffffffffffffffffffffff16815260200190815260200160002060009054906101000a900460ff1615151561185557600080fd5b81600b60003373ffffffffffffffffffffffffffffffffffffffff1673ffffffffffffffffffffffffffffffffffffffff16815260200190815260200160002054101515156118a357600080fd5b81600b60003373ffffffffffffffffffffffffffffffffffffffff1673ffffffffffffffffffffffffffffffffffffffff16815260200190815260200160002060008282540392505081905550816003600082825403925050819055503373ffffffffffffffffffffffffffffffffffffffff167fcc16f5dbb4873280815c1ee09dbd06736cffcc184412cf7a71a0fdb75d397ca5836040518082815260200191505060405180910390a260019050919050565b6000600560159054906101000a900460ff1615151561197557600080fd5b600560009054906101000a900473ffffffffffffffffffffffffffffffffffffffff1673ffffffffffffffffffffffffffffffffffffffff163373ffffffffffffffffffffffffffffffffffffffff161415156119d157600080fd5b8160098190555060019050919050565b600560009054906101000a900473ffffffffffffffffffffffffffffffffffffffff1681565b6000600560159054906101000a900460ff16151515611a2557600080fd5b600560009054906101000a900473ffffffffffffffffffffffffffffffffffffffff1673ffffffffffffffffffffffffffffffffffffffff163373ffffffffffffffffffffffffffffffffffffffff16141515611a8157600080fd5b8160ff16600260009054906101000a900460ff1660ff1603600a0a8360ff1602600a819055506001905092915050565b6000600d60003373ffffffffffffffffffffffffffffffffffffffff1673ffffffffffffffffffffffffffffffffffffffff16815260200190815260200160002060009054906101000a900460ff16151515611b0c57600080fd5b600654600b60003373ffffffffffffffffffffffffffffffffffffffff1673ffffffffffffffffffffffffffffffffffffffff1681526020019081526020016000205410151515611b5c57600080fd5b600a54600b60003373ffffffffffffffffffffffffffffffffffffffff1673ffffffffffffffffffffffffffffffffffffffff1681526020019081526020016000205411151515611bac57600080fd5b6001600d60003373ffffffffffffffffffffffffffffffffffffffff1673ffffffffffffffffffffffffffffffffffffffff16815260200190815260200160002060006101000a81548160ff0219169083151502179055506001600e60003373ffffffffffffffffffffffffffffffffffffffff1673ffffffffffffffffffffffffffffffffffffffff168152602001908152602001600020819055503373ffffffffffffffffffffffffffffffffffffffff167fc96e8fee6eb65975d592ca9a340f33200433df4c42b2f623dd9fc6d22984d495600b60003373ffffffffffffffffffffffffffffffffffffffff1673ffffffffffffffffffffffffffffffffffffffff168152602001908152602001600020546040518082815260200191505060405180910390a26001905090565b60085481565b6000600b60008373ffffffffffffffffffffffffffffffffffffffff1673ffffffffffffffffffffffffffffffffffffffff168152602001908152602001600020549050919050565b6000600d60008473ffffffffffffffffffffffffffffffffffffffff1673ffffffffffffffffffffffffffffffffffffffff16815260200190815260200160002060009054906101000a900460ff16151515611d8757600080fd5b81600b60008573ffffffffffffffffffffffffffffffffffffffff1673ffffffffffffffffffffffffffffffffffffffff1681526020019081526020016000205410151515611dd557600080fd5b600c60008473ffffffffffffffffffffffffffffffffffffffff1673ffffffffffffffffffffffffffffffffffffffff16815260200190815260200160002060003373ffffffffffffffffffffffffffffffffffffffff1673ffffffffffffffffffffffffffffffffffffffff168152602001908152602001600020548211151515611e6057600080fd5b81600b60008573ffffffffffffffffffffffffffffffffffffffff1673ffffffffffffffffffffffffffffffffffffffff1681526020019081526020016000206000828254039250508190555081600c60008573ffffffffffffffffffffffffffffffffffffffff1673ffffffffffffffffffffffffffffffffffffffff16815260200190815260200160002060003373ffffffffffffffffffffffffffffffffffffffff1673ffffffffffffffffffffffffffffffffffffffff16815260200190815260200160002060008282540392505081905550816003600082825403925050819055508273ffffffffffffffffffffffffffffffffffffffff167fcc16f5dbb4873280815c1ee09dbd06736cffcc184412cf7a71a0fdb75d397ca5836040518082815260200191505060405180910390a26001905092915050565b6000600560159054906101000a900460ff16151515611fbd57600080fd5b600560009054906101000a900473ffffffffffffffffffffffffffffffffffffffff1673ffffffffffffffffffffffffffffffffffffffff163373ffffffffffffffffffffffffffffffffffffffff1614151561201957600080fd5b82840160ff168560ff1614151561202f57600080fd5b8160ff16600260009054906101000a900460ff1660ff1603600a0a8560ff16026006819055508160ff16600260009054906101000a900460ff1660ff1603600a0a8460ff16026007819055508160ff16600260009054906101000a900460ff1660ff1603600a0a8360ff160260088190555060019050949350505050565b60065481565b60095481565b60018054600181600116156101000203166002900480601f01602080910402602001604051908101604052809291908181526020018280546001816001161561010002031660029004801561214f5780601f106121245761010080835404028352916020019161214f565b820191906000526020600020905b81548152906001019060200180831161213257829003601f168201915b505050505081565b612162338383612576565b5050565b600560149054906101000a900460ff1681565b60075481565b600e6020528060005260406000206000915090505481565b60045481565b6000808490506121ad8585610d93565b15612317578073ffffffffffffffffffffffffffffffffffffffff16638f4ffcb1338630876040518563ffffffff167c0100000000000000000000000000000000000000000000000000000000028152600401808573ffffffffffffffffffffffffffffffffffffffff1673ffffffffffffffffffffffffffffffffffffffff1681526020018481526020018373ffffffffffffffffffffffffffffffffffffffff1673ffffffffffffffffffffffffffffffffffffffff16815260200180602001828103825283818151815260200191508051906020019080838360005b838110156122a757808201518184015260208101905061228c565b50505050905090810190601f1680156122d45780820380516001836020036101000a031916815260200191505b5095505050505050600060405180830381600087803b1580156122f657600080fd5b505af115801561230a573d6000803e3d6000fd5b5050505060019150612318565b5b509392505050565b600560159054906101000a900460ff1615151561233c57600080fd5b600560009054906101000a900473ffffffffffffffffffffffffffffffffffffffff1673ffffffffffffffffffffffffffffffffffffffff163373ffffffffffffffffffffffffffffffffffffffff1614151561239857600080fd5b600560149054906101000a900460ff1615156123b357600080fd5b678ac7230489e80000341415156123c957600080fd5b6001600560156101000a81548160ff021916908315150217905550565b600c602052816000526040600020602052806000526040600020600091509150505481565b600560009054906101000a900473ffffffffffffffffffffffffffffffffffffffff1673ffffffffffffffffffffffffffffffffffffffff163373ffffffffffffffffffffffffffffffffffffffff1614151561246757600080fd5b80600560006101000a81548173ffffffffffffffffffffffffffffffffffffffff021916908373ffffffffffffffffffffffffffffffffffffffff16021790555050565b6000600560159054906101000a900460ff161515156124c957600080fd5b600560009054906101000a900473ffffffffffffffffffffffffffffffffffffffff1673ffffffffffffffffffffffffffffffffffffffff163373ffffffffffffffffffffffffffffffffffffffff1614151561252557600080fd5b600560149054906101000a900460ff1615151561254157600080fd5b6001600560146101000a81548160ff0219169083151502179055506001905090565b600560159054906101000a900460ff1681565b6000600d60008573ffffffffffffffffffffffffffffffffffffffff1673ffffffffffffffffffffffffffffffffffffffff16815260200190815260200160002060009054906101000a900460ff161515156125d157600080fd5b600d60008473ffffffffffffffffffffffffffffffffffffffff1673ffffffffffffffffffffffffffffffffffffffff16815260200190815260200160002060009054906101000a900460ff161561267657600a5482600b60008673ffffffffffffffffffffffffffffffffffffffff1673ffffffffffffffffffffffffffffffffffffffff16815260200190815260200160002054011115151561267557600080fd5b5b60008373ffffffffffffffffffffffffffffffffffffffff161415151561269c57600080fd5b81600b60008673ffffffffffffffffffffffffffffffffffffffff1673ffffffffffffffffffffffffffffffffffffffff16815260200190815260200160002054101515156126ea57600080fd5b600b60008473ffffffffffffffffffffffffffffffffffffffff1673ffffffffffffffffffffffffffffffffffffffff1681526020019081526020016000205482600b60008673ffffffffffffffffffffffffffffffffffffffff1673ffffffffffffffffffffffffffffffffffffffff168152602001908152602001600020540111151561277857600080fd5b600b60008473ffffffffffffffffffffffffffffffffffffffff1673ffffffffffffffffffffffffffffffffffffffff16815260200190815260200160002054600b60008673ffffffffffffffffffffffffffffffffffffffff1673ffffffffffffffffffffffffffffffffffffffff1681526020019081526020016000205401905081600b60008673ffffffffffffffffffffffffffffffffffffffff1673ffffffffffffffffffffffffffffffffffffffff1681526020019081526020016000206000828254039250508190555081600b60008573ffffffffffffffffffffffffffffffffffffffff1673ffffffffffffffffffffffffffffffffffffffff168152602001908152602001600020600082825401925050819055508273ffffffffffffffffffffffffffffffffffffffff168473ffffffffffffffffffffffffffffffffffffffff167fddf252ad1be2c89b69c2b068fc378daa952ba7f163c4a11628f55a4df523b3ef846040518082815260200191505060405180910390a380600b60008573ffffffffffffffffffffffffffffffffffffffff1673ffffffffffffffffffffffffffffffffffffffff16815260200190815260200160002054600b60008773ffffffffffffffffffffffffffffffffffffffff1673ffffffffffffffffffffffffffffffffffffffff168152602001908152602001600020540114151561298557fe5b505050505600a165627a7a7230582030c853c6e34859abeffb8d5dc39893b2175d7d29e6870fe47b42569a851b68130029",
  "source": "pragma solidity ^0.4.18;\n\ninterface tokenRecipient { function receiveApproval(address _from, uint256 _value, address _token, bytes _extraData) public; }\n\ncontract OysterPearl {\n    // Public variables of PRL\n    string public name;\n    string public symbol;\n    uint8 public decimals;\n    uint256 public totalSupply;\n    uint256 public funds;\n    address public director;\n    bool public saleClosed;\n    bool public directorLock;\n    uint256 public claimAmount;\n    uint256 public payAmount;\n    uint256 public feeAmount;\n    uint256 public epoch;\n    uint256 public retentionMax;\n\n    // Array definitions\n    mapping (address => uint256) public balances;\n    mapping (address => mapping (address => uint256)) public allowance;\n    mapping (address => bool) public buried;\n    mapping (address => uint256) public claimed;\n\n    // ERC20 event\n    event Transfer(address indexed _from, address indexed _to, uint256 _value);\n\n    // ERC20 event\n    event Approval(address indexed _owner, address indexed _spender, uint256 _value);\n\n    // This notifies clients about the amount burnt\n    event Burn(address indexed _from, uint256 _value);\n\n    // This notifies clients about an address getting buried\n    event Bury(address indexed _target, uint256 _value);\n\n    // This notifies clients about a claim being made on a buried address\n    event Claim(address indexed _target, address indexed _payout, address indexed _fee);\n\n    /**\n     * Constructor function\n     *\n     * Initializes contract\n     */\n    function OysterPearl() public {\n        director = msg.sender;\n        name = \"Oyster Pearl\";\n        symbol = \"PRL\";\n        decimals = 18;\n        saleClosed = true;\n        directorLock = false;\n        funds = 0;\n        totalSupply = 0;\n\n        // Marketing share (5%)\n        totalSupply += 25000000 * 10 ** uint256(decimals);\n\n        // Devfund share (15%)\n        totalSupply += 75000000 * 10 ** uint256(decimals);\n\n        // Allocation to match PREPRL supply and reservation for discretionary use\n        totalSupply += 8000000 * 10 ** uint256(decimals);\n\n        // Assign reserved PRL supply to the director\n        balances[director] = totalSupply;\n\n        // Define default values for Oyster functions\n        claimAmount = 5 * 10 ** (uint256(decimals) - 1);\n        payAmount = 4 * 10 ** (uint256(decimals) - 1);\n        feeAmount = 1 * 10 ** (uint256(decimals) - 1);\n\n        // Seconds in a year\n        epoch = 31536000;\n\n        // Maximum time for a sector to remain stored\n        retentionMax = 40 * 10 ** uint256(decimals);\n    }\n\n    /**\n     * ERC20 balance function\n     */\n    function balanceOf(address _owner) public constant returns (uint256 balance) {\n        return balances[_owner];\n    }\n\n    modifier onlyDirector {\n        // Director can lock themselves out to complete decentralization of Oyster network\n        // An alternative is that another smart contract could become the decentralized director\n        require(!directorLock);\n\n        // Only the director is permitted\n        require(msg.sender == director);\n        _;\n    }\n\n    modifier onlyDirectorForce {\n        // Only the director is permitted\n        require(msg.sender == director);\n        _;\n    }\n\n    /**\n     * Transfers the director to a new address\n     */\n    function transferDirector(address newDirector) public onlyDirectorForce {\n        director = newDirector;\n    }\n\n    /**\n     * Withdraw funds from the contract\n     */\n    function withdrawFunds() public onlyDirectorForce {\n        director.transfer(this.balance);\n    }\n\n    /**\n     * Permanently lock out the director to decentralize Oyster\n     * Invocation is discretionary because Oyster might be better suited to\n     * transition to an artificially intelligent smart contract director\n     */\n    function selfLock() public payable onlyDirector {\n        // The sale must be closed before the director gets locked out\n        require(saleClosed);\n\n        // Prevents accidental lockout\n        require(msg.value == 10 ether);\n\n        // Permanently lock out the director\n        directorLock = true;\n    }\n\n    /**\n     * Director can alter the storage-peg and broker fees\n     */\n    function amendClaim(uint8 claimAmountSet, uint8 payAmountSet, uint8 feeAmountSet, uint8 accuracy) public onlyDirector returns (bool success) {\n        require(claimAmountSet == (payAmountSet + feeAmountSet));\n\n        claimAmount = claimAmountSet * 10 ** (uint256(decimals) - accuracy);\n        payAmount = payAmountSet * 10 ** (uint256(decimals) - accuracy);\n        feeAmount = feeAmountSet * 10 ** (uint256(decimals) - accuracy);\n        return true;\n    }\n\n    /**\n     * Director can alter the epoch time\n     */\n    function amendEpoch(uint256 epochSet) public onlyDirector returns (bool success) {\n        // Set the epoch\n        epoch = epochSet;\n        return true;\n    }\n\n    /**\n     * Director can alter the maximum time of storage retention\n     */\n    function amendRetention(uint8 retentionSet, uint8 accuracy) public onlyDirector returns (bool success) {\n        // Set retentionMax\n        retentionMax = retentionSet * 10 ** (uint256(decimals) - accuracy);\n        return true;\n    }\n\n    /**\n     * Director can close the crowdsale\n     */\n    function closeSale() public onlyDirector returns (bool success) {\n        // The sale must be currently open\n        require(!saleClosed);\n\n        // Lock the crowdsale\n        saleClosed = true;\n        return true;\n    }\n\n    /**\n     * Director can open the crowdsale\n     */\n    function openSale() public onlyDirector returns (bool success) {\n        // The sale must be currently closed\n        require(saleClosed);\n\n        // Unlock the crowdsale\n        saleClosed = false;\n        return true;\n    }\n\n    /**\n     * Oyster Protocol Function\n     * More information at https://oyster.ws/OysterWhitepaper.pdf\n     *\n     * Bury an address\n     *\n     * When an address is buried; only claimAmount can be withdrawn once per epoch\n     */\n    function bury() public returns (bool success) {\n        // The address must be previously unburied\n        require(!buried[msg.sender]);\n\n        // An address must have at least claimAmount to be buried\n        require(balances[msg.sender] >= claimAmount);\n\n        // Prevent addresses with large balances from getting buried\n        require(balances[msg.sender] <= retentionMax);\n\n        // Set buried state to true\n        buried[msg.sender] = true;\n\n        // Set the initial claim clock to 1\n        claimed[msg.sender] = 1;\n\n        // Execute an event reflecting the change\n        Bury(msg.sender, balances[msg.sender]);\n        return true;\n    }\n\n    /**\n     * Oyster Protocol Function\n     * More information at https://oyster.ws/OysterWhitepaper.pdf\n     *\n     * Claim PRL from a buried address\n     *\n     * If a prior claim wasn't made during the current epoch, then claimAmount can be withdrawn\n     *\n     * @param _payout the address of the website owner\n     * @param _fee the address of the broker node\n     */\n    function claim(address _payout, address _fee) public returns (bool success) {\n        // The claimed address must have already been buried\n        require(buried[msg.sender]);\n\n        // The payout and fee addresses must be different\n        require(_payout != _fee);\n\n        // The claimed address cannot pay itself\n        require(msg.sender != _payout);\n\n        // The claimed address cannot pay itself\n        require(msg.sender != _fee);\n\n        // It must be either the first time this address is being claimed or atleast epoch in time has passed\n        require(claimed[msg.sender] == 1 || (block.timestamp - claimed[msg.sender]) >= epoch);\n\n        // Check if the buried address has enough\n        require(balances[msg.sender] >= claimAmount);\n\n        // Reset the claim clock to the current block time\n        claimed[msg.sender] = block.timestamp;\n\n        // Save this for an assertion in the future\n        uint256 previousBalances = balances[msg.sender] + balances[_payout] + balances[_fee];\n\n        // Remove claimAmount from the buried address\n        balances[msg.sender] -= claimAmount;\n\n        // Pay the website owner that invoked the web node that found the PRL seed key\n        balances[_payout] += payAmount;\n\n        // Pay the broker node that unlocked the PRL\n        balances[_fee] += feeAmount;\n\n        // Execute events to reflect the changes\n        Claim(msg.sender, _payout, _fee);\n        Transfer(msg.sender, _payout, payAmount);\n        Transfer(msg.sender, _fee, feeAmount);\n\n        // Failsafe logic that should never be false\n        assert(balances[msg.sender] + balances[_payout] + balances[_fee] == previousBalances);\n        return true;\n    }\n\n    /**\n     * Crowdsale function\n     */\n    function () public payable {\n        // Check if crowdsale is still active\n        require(!saleClosed);\n\n        // Minimum amount is 1 finney\n        require(msg.value >= 1 finney);\n\n        // Price is 1 ETH = 5000 PRL\n        uint256 amount = msg.value * 5000;\n\n        // totalSupply limit is 500 million PRL\n        require(totalSupply + amount <= (500000000 * 10 ** uint256(decimals)));\n\n        // Increases the total supply\n        totalSupply += amount;\n\n        // Adds the amount to the balance\n        balances[msg.sender] += amount;\n\n        // Track ETH amount raised\n        funds += msg.value;\n\n        // Execute an event reflecting the change\n        Transfer(this, msg.sender, amount);\n    }\n\n    /**\n     * Internal transfer, can be called by this contract only\n     */\n    function _transfer(address _from, address _to, uint _value) internal {\n        // Sending addresses cannot be buried\n        require(!buried[_from]);\n\n        // If the receiving address is buried, it cannot exceed retentionMax\n        if (buried[_to]) {\n            require(balances[_to] + _value <= retentionMax);\n        }\n\n        // Prevent transfer to 0x0 address, use burn() instead\n        require(_to != 0x0);\n\n        // Check if the sender has enough\n        require(balances[_from] >= _value);\n\n        // Check for overflows\n        require(balances[_to] + _value > balances[_to]);\n\n        // Save this for an assertion in the future\n        uint256 previousBalances = balances[_from] + balances[_to];\n\n        // Subtract from the sender\n        balances[_from] -= _value;\n\n        // Add the same to the recipient\n        balances[_to] += _value;\n        Transfer(_from, _to, _value);\n\n        // Failsafe logic that should never be false\n        assert(balances[_from] + balances[_to] == previousBalances);\n    }\n\n    /**\n     * Transfer tokens\n     *\n     * Send `_value` tokens to `_to` from your account\n     *\n     * @param _to the address of the recipient\n     * @param _value the amount to send\n     */\n    function transfer(address _to, uint256 _value) public {\n        _transfer(msg.sender, _to, _value);\n    }\n\n    /**\n     * Transfer tokens from other address\n     *\n     * Send `_value` tokens to `_to` in behalf of `_from`\n     *\n     * @param _from the address of the sender\n     * @param _to the address of the recipient\n     * @param _value the amount to send\n     */\n    function transferFrom(address _from, address _to, uint256 _value) public returns (bool success) {\n        // Check allowance\n        require(_value <= allowance[_from][msg.sender]);\n        allowance[_from][msg.sender] -= _value;\n        _transfer(_from, _to, _value);\n        return true;\n    }\n\n    /**\n     * Set allowance for other address\n     *\n     * Allows `_spender` to spend no more than `_value` tokens on your behalf\n     *\n     * @param _spender the address authorized to spend\n     * @param _value the max amount they can spend\n     */\n    function approve(address _spender, uint256 _value) public returns (bool success) {\n        // Buried addresses cannot be approved\n        require(!buried[msg.sender]);\n\n        allowance[msg.sender][_spender] = _value;\n        Approval(msg.sender, _spender, _value);\n        return true;\n    }\n\n    /**\n     * Set allowance for other address and notify\n     *\n     * Allows `_spender` to spend no more than `_value` tokens on your behalf, and then ping the contract about it\n     *\n     * @param _spender the address authorized to spend\n     * @param _value the max amount they can spend\n     * @param _extraData some extra information to send to the approved contract\n     */\n    function approveAndCall(address _spender, uint256 _value, bytes _extraData) public returns (bool success) {\n        tokenRecipient spender = tokenRecipient(_spender);\n        if (approve(_spender, _value)) {\n            spender.receiveApproval(msg.sender, _value, this, _extraData);\n            return true;\n        }\n    }\n\n    /**\n     * Destroy tokens\n     *\n     * Remove `_value` tokens from the system irreversibly\n     *\n     * @param _value the amount of money to burn\n     */\n    function burn(uint256 _value) public returns (bool success) {\n        // Buried addresses cannot be burnt\n        require(!buried[msg.sender]);\n\n        // Check if the sender has enough\n        require(balances[msg.sender] >= _value);\n\n        // Subtract from the sender\n        balances[msg.sender] -= _value;\n\n        // Updates totalSupply\n        totalSupply -= _value;\n        Burn(msg.sender, _value);\n        return true;\n    }\n\n    /**\n     * Destroy tokens from other account\n     *\n     * Remove `_value` tokens from the system irreversibly on behalf of `_from`.\n     *\n     * @param _from the address of the sender\n     * @param _value the amount of money to burn\n     */\n    function burnFrom(address _from, uint256 _value) public returns (bool success) {\n        // Buried addresses cannot be burnt\n        require(!buried[_from]);\n\n        // Check if the targeted balance is enough\n        require(balances[_from] >= _value);\n\n        // Check allowance\n        require(_value <= allowance[_from][msg.sender]);\n\n        // Subtract from the targeted balance\n        balances[_from] -= _value;\n\n        // Subtract from the sender's allowance\n        allowance[_from][msg.sender] -= _value;\n\n        // Update totalSupply\n        totalSupply -= _value;\n        Burn(_from, _value);\n        return true;\n    }\n}",
  "sourcePath": "/Users/milanradon/webnode-master/smartcontract-master/truffle-oyster/contracts/OysterPearl.sol",
  "compiler": {
    "name": "solc",
    "version": "0.4.23+commit.124ca40d.Emscripten.clang"
  },
  "schemaVersion": "2.0.0",
  "updatedAt": "2018-04-22T13:13:58.628Z"
}